:100000000C9455050C9472050C9472050C94FE2802
:100010000C9472050C9472050C9472050C94720584
:100020000C9472050C9472050C94D5120C94F41671
:100030000C94EA210C9472050C9472050C947205D0
:100040000C9472050C9472050C9472050C94720554
:100050000C9472050C94AE130C9472050C947205FA
:100060000C9472050C9472050C9472050C94720534
:100070000C9472050C9472050C9472050C94720524
:100080000C9472050C9472050C9472050C94720514
:100090000C9472050C9472050C9472050C94720504
:1000A0000C9472050C9472050C947205202020208B
:1000B0006162636465666768696A6B6C6D6E6F70B8
:1000C0007172737475767778797A31323334353664
:1000D00037383930524542545F2D3D5B5D5C233BE0
:1000E00027602C2E2F202020290014001A00080041
:1000F000150017002B0004001600070009000A0075
:10010000C1521D001B000600190005000000000080
:100110000000E200E000E1000000130012000C000B
:1001200018001C002A002D000F000E000D000B000F
:1001300000003800370036001000110000000000F9
:100140000000E30028432C42290042003B003C0011
:100150003D002E0000004B00500052004F002602D0
:1001600061524E004A0051004D002702000000007D
:100170000000E200E000E100550054006100600072
:100180005F0008002A0056005E005D005C0036003B
:100190002B0057005B005A0059006300000000006C
:1001A0000000620058432C4200003A003B003C0033
:1001B0003D003E0000001E001F0020002100220024
:1001C00000002F003500310030000000000000006A
:1001D0000000010001000100000043004200410056
:1001E00040003F00000027002600250024002300D7
:1001F0000000330000002E0034000000000000006A
:10020000000065004C00010000004400450046006D
:100210004700480000001E021F02200221022202A5
:1002200000002F0235023102300200000000000001
:1002300000000100010001000000530000000170F7
:100240000270390000002702260225022402230240
:100250000000330200002E02340200000000000003
:100260000000007C0100490000DA0281FFD9F1DBC7
:1002700020A4A62EAF00A0C0D30000A1C8D30000C8
:10028000AED580A81F408D142000556E64656600B1
:1002900041646A757374005261697365004C6F77CD
:1002A00065720044656661756C74004C61796572B5
:1002B0003A20003A002C206B0078008081828384F1
:1002C00085868788898A8B8C8D8E8F909192939466
:1002D000A0A1A2A3A4A5A6A7A8A9AAABACADAEAFA6
:1002E000B0B1B2B3B4C0C1C2C3C4C5C6C7C8C9CA1D
:1002F000CBCCCDCECFD0D1D2D3D4000001010101DF
:1003000001010101010202020202020202020303D0
:1003100003030303030304040404040404050505A0
:100320000505060606060607070707070808080862
:10033000090909090A0A0A0B0B0B0C0C0C0D0D0D0F
:100340000E0E0E0F0F0F10101111111212131314A5
:1003500014151516161717181819191A1A1B1B1C1D
:100360001D1D1E1E1F202021222223242425262677
:10037000272829292A2B2C2D2D2E2F3031323233AC
:100380003435363738393A3B3C3D3E3F40414243B5
:100390004445464748494A4C4D4E4F505153545599
:1003A0005658595A5B5D5E5F616264656668696B49
:1003B0006C6D6F7072737577787A7B7D7E808283C7
:1003C0008587888A8C8E8F91939596989A9C9EA00B
:1003D000A2A3A5A7A9ABADAFB1B3B5B7BABCBEC018
:1003E000C2C4C6C9CBCDCFD1D4D6D8DBDDDFE2E4E1
:1003F000E7E9EBEEF0F3F5F8FAFDFF00AF00AE052C
:10040000010902A10185020901A1000509190129BB
:1004100008150025019508750181020501093009BB
:10042000311581257F9502750881060938158125CA
:100430007F950175088106050C0A38021581257F14
:10044000950175088106C0C005010980A1018503D9
:1004500019012AB700150126B70095017510810012
:10046000C0050C0901A101850419012AA00215018A
:1004700026A002950175108100C005010906A101A1
:100480008506050719E029E715002501950875017E
:1004900081020507190029EF1500250195F0750166
:1004A000810205081901290595057501910295013B
:1004B00075039101C005010906A101050719E0298D
:1004C000E7150025019508750181029501750881E0
:1004D000010507190029FF150026FF00950675087C
:1004E00081000508190129051500250195057501EB
:1004F0009102950175039101C009023B00020100C0
:10050000A0FA090400000103010100092111010002
:1005100001224400070581030800010904010001CC
:100520000300000009211101000122B60007058225
:1005300003200001120100020000000853460100E0
:100540000100010200010C0343006F0072006E0005
:1005500065000000100366006F006F0073007400F8
:1005600061006E00000004030904000000000000A8
:100570003E5B4F5B3E003E6B4F6B3E001C3E7C3E45
:100580001C00183C7E3C18001C577D571C001C5E4C
:100590007F5E1C0000183C180000FFE7C3E7FF0067
:1005A000001824180000FFE7DBE7FF0030483A0698
:1005B0000E00262979292600407F05050700407F87
:1005C00005253F005A3CE73C5A007F3E1C1C0800B2
:1005D000081C1C3E7F0014227F2214005F5F005F16
:1005E0005F0006097F017F00006689956A006060F0
:1005F0006060600094A2FFA2940008047E040800DA
:1006000010207E20100008082A1C0800081C2A0858
:1006100008001E10101010000C1E0C1E0C003038AC
:100620003E383000060E3E0E0600000000000000BE
:1006300000005F000000000700070000147F147F27
:100640001400242A7F2A120023130864620036490A
:1006500056205000000807030000001C2241000043
:100660000041221C00002A1C7F1C2A0008083E08AA
:10067000080000807030000008080808080000002A
:10068000606000002010080402003E5149453E0011
:1006900000427F4000007249494946002141494DCE
:1006A00033001814127F10002745454539003C4A95
:1006B00049493100412111090700364949493600AD
:1006C000464949291E000000140000000040340083
:1006D00000000008142241001414141414000041F6
:1006E000221408000201590906003E415D594E00DE
:1006F0007C1211127C007F49494936003E4141413C
:1007000022007F4141413E007F49494941007F0924
:10071000090901003E41415173007F0808087F002C
:1007200000417F4100002040413F01007F0814222A
:1007300041007F40404040007F021C027F007F0458
:1007400008107F003E4141413E007F090909060033
:100750003E4151215E007F09192946002649494939
:10076000320003017F0103003F4040403F001F2053
:1007700040201F003F4038403F00631408146300CE
:100780000304780403006159494D4300007F41414F
:100790004100020408102000004141417F00040292
:1007A00001020400404040404000000307080000F0
:1007B0002054547840007F2844443800384444444E
:1007C0002800384444287F00385454541800000846
:1007D0007E0902001824241C78007F080404780095
:1007E00000447D4000002040403D00007F10284430
:1007F000000000417F4000007C04780478007C0801
:10080000040478003844444438007C182424180038
:10081000182424187C007C0804040800485454540C
:10082000240004043F4424003C4040207C001C2061
:1008300040201C003C4030403C004428102844002C
:100840004C9090907C004464544C44000008364125
:10085000000000007700000000413608000002019F
:10086000020402003C2623263C0000000000000099
:1008700000000000000000000000C0E0F0F8F818E0
:1008800000C0F0FCFEFFFFFFFFFFFFFF7E00000047
:1008900000000000000080C0E0E0E0E0E0E0E0E018
:1008A000C0800000000080C0E0E0E0E0E0E0E0E0C8
:1008B000C080000000E0E0C0C0E0E0E0E00000E058
:1008C000E0C0C0E0E0E0E0E0C0800000000080C0E8
:1008D000E0E0E0E0E0E0E0E0C080000000000000D8
:1008E0000000000000000000E0F0F0F0E0ECEEF7A7
:1008F000F37020007C7C7C7E007E7E7E7F7F7F008C
:100900000080C0E07E5B4F5BFEC00000C000DCD713
:10091000DEDEDED7DC00C0000000000000000000CA
:1009200000000000000000000000000000000000C7
:10093000000000F8FCFEFFE000FFFFFFFFFFFF806C
:10094000FFFFFFFFFFFFFFFFFF1F07010000000089
:100950000000000000FFFFFF810000000000008198
:10096000C3C3C30000FFFFFF81000000000000813F
:10097000FFFFFF0000FFFFFF01000000000000FF7D
:10098000FFFF010000000001FFFFFF0000FFFFFF6D
:100990009D1C1C1C1C1C1C9DDFDFDF0000000000D8
:1009A00000000000000000000F1F3F7F7F7F7F7F5F
:1009B0003F1E0C001F1F1F3F003F3F3F7F7F7F00F8
:1009C000307B7F7830202030787F3B0003000F7F22
:1009D0000F0F0F7F0F000300000000000000000059
:1009E0000000000000000000000000000000000007
:1009F000000000030F1F3F3F3F3F1F1F3F3F7F7F10
:100A00007F3F3F1F3F7F7F7F7F7C7878381C0F00C0
:100A1000000000000000010307070707070707079A
:100A20000301000000000103070707070707070786
:100A30000301000000070707000000000000000796
:100A4000070700000000000007070700000001037F
:100A5000070707070707070703010000000000005A
:100A60000000000000000000000000000000000086
:100A70000000000000000000000000000000000076
:100A80000000000000000000000000000000000066
:100A90000000000000000000000000000000000056
:100AA0000000000000000000000011241FBECFEF76
:100AB000DAE0DEBFCDBF11E0A0E0B1E0E0E6F7E5AF
:100AC00002C005900D92AA38B107D9F725E0AAE82F
:100AD000B1E001C01D92A03CB207E1F70E941122D3
:100AE0000C945A2B0C9400008F929F92AF92BF925D
:100AF000CF92DF92EF92FF9290913901981305C047
:100B00009091B403903209F44BC08093390190E284
:100B10009093B403C82ED12CF12CE12C1092B30386
:100B2000C701B6012AE030E040E050E00E94852A8B
:100B3000605D603331F0C114D104E104F10409F4C3
:100B400060E26093B20360E28AE0C816D104E10477
:100B5000F10490F08AE0882E912CA12CB12CC701D1
:100B6000B601A50194010E94852ACA01B901A50117
:100B700094010E94852A605D6093B10320E284E6BF
:100B8000C816D104E104F10448F0C701B60124E617
:100B900030E040E050E00E94852A205D2093B003C1
:100BA00080EB93E0FF90EF90DF90CF90BF90AF90FD
:100BB0009F908F900895482F2091AC0390917303DC
:100BC00057E0291302C080E0089530E0529FF00101
:100BD000539FF00D1124EC58FC4F8181681306C01F
:100BE0008081481303C085818111EECF2F5F3F4F75
:100BF0002770E7CFFC01AC014C5F5F4F8FEF91E3B3
:100C00002191822728E030E087FF09C0880F8927DB
:100C100021503109C9F7E417F50791F70895880FB6
:100C2000F7CFE8EDF0E080818E7F80831092E200C4
:100C30001092DA001092E100A0EEB0E08C91816099
:100C40008C9380818F77808319BCA7EDB0E08C9165
:100C50008E7F8C9380818F7E8083109244030895D1
:100C60002091E4003091E50095E6A9012091EC0087
:100C7000822F817020FF06C08091E80080FF06C0AF
:100C800080E008952091E80022FD1AC08091690358
:100C9000882389F0853089F08091EB0085FD0FC0B5
:100CA0002091E4003091E50042175307F9F291508A
:100CB000E1F684E0089582E0089583E0089581E0FC
:100CC000089580916B0387FF13C08091E80082FF35
:100CD00006C08091E8008B778093E80004C0809183
:100CE00069038111F2CF0895809169038823D9F3B4
:100CF0008091E80080FFF8CF8091E8008E77ECCFFC
:100D0000982F9093E900242F762F50E0891731F027
:100D10007091EC002091ED005091F00021FD07C092
:100D20009F5F973071F78093E90081E008953091DB
:100D3000EB003E7F3093EB003091ED003D7F309330
:100D4000ED003091EB0031603093EB007093EC00DC
:100D50002093ED005093F0002091EE0027FDE0CFAE
:100D600080E00895B0E0A0E0E8EBF6E00C94382ACB
:100D7000C8EDD0E088818F7E8883E7EDF0E0808148
:100D80008160808384E082BF81E080934403888116
:100D90008E7F888302EE10E0F80110821092DA0054
:100DA00081EEC82ED12CF601108288818F7788833E
:100DB00088818068888388818F7D888319BC1092A0
:100DC000690310926A03109268031092670390EE11
:100DD000E92EF12CF70180818B7F808388818160EF
:100DE000888342E060E080E00E948006F601808116
:100DF0008E7F8083F801808181608083808188601C
:100E00008083F70180818E7F8083888180618883E1
:100E1000CDB7DEB7E8E00C94542AFC018091710351
:100E20009091720386179707A0F06115710529F458
:100E30009091E8009E779093E80090E0611571052D
:100E400051F4911108C08091E80082FF34C080E025
:100E50000895BC01F2CF809169038823C1F18530E8
:100E6000C1F18091E80083FD30C08091E80082FDEF
:100E7000EACF8091E80080FFE1CF8091F3002091DC
:100E8000F200382F6115710519F02830310558F03E
:100E900091E02830310509F090E02091E8002E77AC
:100EA0002093E800CBCF81918093F10061507109CC
:100EB0002F5F3F4FE7CF80916903882341F0853052
:100EC00041F08091E80083FFBECF81E0089582E089
:100ED000089583E0089580914603089587E797E792
:100EE000909301088093000888E19AE00FB6F89487
:100EF000A895809360000FBE90936000FFCF2FB73E
:100F0000F89460913E0370913F038091400390916B
:100F100041032FBF0895209138012223C9F0209169
:100F2000420327FF15C0E62FE695E695E695EE31DC
:100F3000D8F4E80FF92FF11D677021E030E001C00F
:100F4000220F6A95EAF7209582812823228308954B
:100F5000FC01329608962191621303C0DF011197BC
:100F60001C92E817F907B9F7089520913801222358
:100F7000C1F02091420327FF14C0E62FE695E695C5
:100F8000E695EE31F8F4E80FF92FF11D677021E0D6
:100F900030E001C0220F6A95EAF78281822B8283BA
:100FA0000895FC0132962FEF30E04191641751F023
:100FB0002F3F19F4411101C0232F3F5F3630A9F7AD
:100FC0002F3F09F40895820F911D27FD9A95FC018A
:100FD00062830895A3E0B0E0E0EFF7E00C943E2ACE
:100FE00020913B0330913C0328173907A1F09093DF
:100FF0003C0380933B03E0913903F0913A0330972F
:1010000051F024E029839B838A830680F781E02DB9
:10101000CE01019609952396E2E00C945A2AA3E0AA
:10102000B0E0E5E1F8E00C943E2A209137033091DE
:10103000380328173907A1F09093380380933703BA
:10104000E0913903F0913A03309751F023E029837E
:101050009B838A830680F781E02DCE010196099556
:101060002396E2E00C945A2AFA01811101C0FB0197
:101070000995089580912903982F9E7F71F480919E
:101080002903817082608093290380912C03893722
:1010900018F088E780932C030895843080F7F5CF0B
:1010A0008091790280FD16C081FD16C082FD16C0B8
:1010B000809178028823A1F0883280F428E0829F12
:1010C000C001112468E270E00E94712A862F672B0C
:1010D00039F0089582E0089584E0089588E0089545
:1010E00081E008958091790280FD14C081FD14C0D3
:1010F00082FD16C080917702882381F08E3180F4C2
:1011000020E5829FC00111246EE170E00E94712AE7
:10111000862F089584E1089588E2089588E008956F
:1011200080E50895282F35EB2303C001112497FF94
:1011300004C080589109892F089580589F4FFBCF94
:1011400080E00895F894E82FE295EF70F0E031A187
:10115000282F2F7081E090E001C0880F2A95EAF7D0
:10116000982F9095932391A392A1892B82A3789491
:1011700008959091420392FF10C041E0282F2471FE
:10118000243009F040E031E0282F2871283009F0A0
:1011900030E0431711F02CE0822793FF10C041E0AC
:1011A000282F2471243109F040E031E0282F2871E4
:1011B000283109F030E0431711F02CE082273091FC
:1011C000430330FF10C051E0282F2171213009F076
:1011D00050E041E0282F2871283009F040E05417F2
:1011E00011F029E0822731FF10C041E0282F217142
:1011F000213109F040E031E0282F2871283109F031
:1012000030E0431711F029E0822794FD877E08958E
:1012100082389105B9F1B0F48133910509F47DC0AC
:1012200048F48932910509F46DC08A32910509F4B8
:101230007BC008958533910509F45FC0893391051A
:1012400009F10895833E9105D9F138F4803E910566
:1012500029F1823E910579F10895863E9105D9F1F3
:10126000873E910509F43EC0843E910541F52091E9
:10127000430321FF24C08091420384FD19C087EEFF
:1012800090E0089520914203237009F05AC0209104
:10129000430323FF14C089E290E0089520914203A4
:1012A00020FD38C03091430330FF09C024FF43C004
:1012B00090E080E008952091420322FDF7CF089549
:1012C0002091420322FD3AC03091430330FD39C0E2
:1012D00024FFF5CFEDCF2091420323FFF0CF24FD73
:1012E000E7CFCDCF2091420323FD2EC030914303A1
:1012F00031FFEECF84EE90E008952091420325FF68
:10130000DECFC9CF2091420325FD21C020914303A8
:1013100023FFD5CF89E390E0D2CF2091420326FF6F
:10132000CECF8AE290E008952091420326FFC7CFF6
:1013300081E390E0089583EE90E0089582EE90E0DE
:10134000089580EE90E0089586EE90E0089585E39C
:1013500090E00895972F7830B8F46630A8F4843080
:10136000B0F470E026E0929F600D711D1124FB0126
:1013700090E3899FE00DF11D1124EE0FFF1FE8514E
:10138000FF4F85919491089580E090E0089581E069
:10139000FCCF1F93CF93DF930E940809EC01C11586
:1013A00080E5D807F0F5C11580E4D80708F09CC0A7
:1013B000C03ED10520F5CD3CD10508F082C0C83A29
:1013C000D10578F4C53AD10508F073C0C130D10514
:1013D00019F1209709F1C430D105F0F4D0E0C0E054
:1013E0001BC0C33CD105D0F7C85AD0E0CC0FDD1FDD
:1013F000C35CDE4F0990D881C02DD4640DC0C115E7
:1014000080E2D80708F0D1C0C11581E0D80708F004
:101410005AC0C83ED10510F7CE01DF91CF911F9180
:101420000895C03682E5D80718F5C03482E5D8079C
:1014300008F06BC0C03282E5D80708F05FC0C11564
:1014400082E5D80708F497C02C2F2695269580E2D0
:10145000289F900111248C2F8370C1E0D0E002C03E
:10146000CC0FDD1F8A95E2F7C22BD32BDD68D4CFDA
:10147000C03A82E5D80760F4C03882E5D80708F49E
:1014800059C0CF71D0E0DC2FCC27C46FD06AC4CF55
:10149000C03C82E5D80708F462C0C03E82E5D807A8
:1014A00008F09CCFDC2FCC27CC27DF71C06FD06A2F
:1014B000B3CFC55AD0E0C65CDE4FC881D0E0D0645F
:1014C000ABCFD065A9CF8D2F0E94B908182FCE01C0
:1014D00099270E940809C12FD0E0DC2FCC27CC2708
:1014E000DF71C82BD92B98CFCE0199270E9408090C
:1014F000CC27DF70C82BD92BD06A8ECFCF71D0E02C
:10150000DC2FCC27C16FD06A87CF2C2F269526954C
:10151000277080E2289F900111248C2F8370C1E0F6
:10152000D0E002C0CC0FDD1F8A95E2F7C22BD32B8F
:10153000DC6872CF2C2F26952695277080E2289F95
:10154000900111248C2F8370C1E0D0E002C0CC0F39
:10155000DD1F8A95E2F7C22BD32BDA685DCF8C2F83
:101560008F710E94B908C82FD0E0DC2FCC27CC2780
:10157000DF71D06251CF8C2F8F710E94B90855E076
:10158000D695C7955A95E1F7CF70D0E0DC2FCC27E0
:10159000282F30E084FF05C044E0220F331F4A9516
:1015A000E1F7C22BD32BD06937CF8D2F8F710E94DB
:1015B000B908182FCE0199270E940809C12FD0E041
:1015C000DC2FCC27CC27DF71C82BD92BD2CF80952D
:1015D0009091F00198239093F00108958091AC03CD
:1015E00090917303981301C008958F5F8770FACFAD
:1015F000B0E0A0E0EEEFFAE00C94372A7C01009115
:101600004502109146028091F1019091F201082B60
:10161000192BCFE0D0E0CC24C394D12CBC2EC60132
:101620000C2E02C0880F991F0A94E2F780239123A1
:10163000892B49F4219790F7B12C8B2DCDB7DEB7CC
:10164000E9E00C94532AB7018C2F0E94AA090E944A
:10165000C909019779F3F1CFCF93DF93EC010E9491
:10166000F80ABE010E94AA090E94C909DF91CF9120
:101670000895983078F5863068F5E82FF0E086E038
:10168000989FE00DF11D11249E2F977083E0F69531
:10169000E7958A95E1F7EE0FFF1FEE0FFF1FE2556A
:1016A000FE4F50E040E080E0219130E0092E02C082
:1016B000369527950A94E2F721703327042E01C04E
:1016C000220F0A94EAF7822B4F5F5F4F4430510597
:1016D00059F7089580E00895983098F5863088F598
:1016E000E82FF0E086E0989FE00DF11D11248E2F89
:1016F000877041E001C0440F8A95EAF783E0F695D0
:10170000E7958A95E1F7EE0FFF1FEE0FFF1FE255F9
:10171000FE4F30E020E070E05191DF011197CB01E6
:10172000022E02C0969587950A94E2F78170819502
:101730008527842385278C932F5F3F4F24303105E5
:1017400059F708959093460280934502089521E049
:1017500030E002C0220F331F8A95E2F720953095C2
:101760008091450290914602822393230E94A20B0E
:1017700008959091CD01809589238093CD01282FE4
:10178000277069F4891759F09091430392FF07C0BD
:101790008695869586950E94A70B1092CD01089597
:1017A00021E030E002C0220F331F8A95E2F78091DA
:1017B000450290914602822B932B0E94A20B089522
:1017C0009093F2018093F1010895FC01248122237A
:1017D000C1F0808191810E942C0B92959F70963070
:1017E00091F058F4925F9F70923058F4803F19F056
:1017F00030F4883E30F481E008959A5FF4CF843F5E
:10180000D1F380E00895883EB0F3813FD1F7F3CF64
:10181000A6E0B0E0EEE0FCE00C943D2A49835A8358
:1018200049815A819923A1F0222391F0CA010E9493
:10183000F80A182F682F89819A810E946C0B6981A0
:101840007A81812F0E94AA092696E3E00C94592AF6
:10185000CA010E94390B182FF2CFCF93DF93682F64
:1018600081E06A3019F06D3031F480E00E94BB0CE9
:10187000DF91CF9108958091BE059091BF0526E03C
:10188000FC01A8EBB5E001900D922A95E1F7603ECE
:1018900008F458C026E0FC0111922A95E9F7C0919E
:1018A000BE05D091BF0546E050E0BE0188EB95E053
:1018B0000E94EC2A9E01285B3340892B41F1C9012B
:1018C00045E0969587954A95E1F741E050E0BA01E9
:1018D00002C0660F771F8A95E2F7CB016091B603CD
:1018E0007091B703862B972BB9016B5F7F4FE5E0B3
:1018F00076956795EA95E1F702C0440F551F6A9502
:10190000E2F7842B952B9093B7038093B6032A5F5D
:101910003F4F4091B503642F70E0C9010E941A2A1D
:10192000481B463010F4240F311D211572E0370793
:1019300010F030E020E028543C4F3093BF05209356
:10194000BE0596CFF6E06F9FB001112466597A4F1D
:1019500046E050E00E94E32AA2CFCF93DF93EC0150
:10196000FE018491811103C0DF91CF9108950E94FF
:101970002D0C2196F5CFCF93382FE091BE05F09135
:10198000BF05E85BF3402091B503622F70E0CF0103
:101990000E941A2A281B822F332361F066E00E94DE
:1019A000652AC82FC15010F4CF91089580E20E949B
:1019B0002D0CF8CF9F01280F311D2115324018F052
:1019C00080E0F0E0E0E08E0F9F2F911D88549C4F47
:1019D0009093BF058093BE05E7CF0E94AD0C81E0D8
:1019E0000E94BB0C08958091F0019091EF01892B2A
:1019F00080938C019091EE019923A1F0892B809323
:101A00008C01809138018823E1F18091420387FFA6
:101A100038C08EE1EEE8F1E090E08150A0F5911140
:101A20001092EE0140E250E06EEC71E08CE891E043
:101A30000E94EC2A892B21F180E2ECE8F1E0AEEC87
:101A4000B1E001900D928A95E1F7E0913903F091B0
:101A50003A033097A9F080913801882359F080919A
:101A6000420387FF07C080918C0180938D0186E03F
:101A700080938C010280F381E02D8CE891E0099540
:101A8000089586E0C7CF2191222339F29F5FC5CF09
:101A9000882321F00E94E70A0E94F30C089588230E
:101AA00039F09091F001982B9093F0010E94F30C83
:101AB00008950F931F93CF93DF93EC01FC010190E6
:101AC0000020E9F78F0101501109C017D10728F054
:101AD000DF91CF911F910F91089589910E942D0C54
:101AE000F4CF0F931F93CF93DF938B01EA01909173
:101AF0006903943061F58093E9008FEF9091E800DD
:101B0000815095FD06C095ED9A95F1F70000811181
:101B1000F5CF8091E80085FF1AC00E943006811140
:101B200011C08091E80085FD06C08091E8008E77A5
:101B30008093E800F2CFF80181918F018093F1004A
:101B4000219779F78091E8008E778093E800DF9104
:101B5000CF911F910F91089543E050E0BC0182E0C6
:101B60000E94710D089546E050E0BC0182E00E94A1
:101B7000710D0895CF93DF93EC01809138018111AD
:101B800011C048E050E0BE0181E00E94710D80E28A
:101B9000FE01A7E4B3E001900D928A95E1F7DF9191
:101BA000CF9108958091420387FF05C040E282E013
:101BB00050E0BE01EACF48E081E0FACF6091340105
:101BC0008091290380FF20C08091330143E0849FEE
:101BD000C001112489579D4F539A2BB1277F3BB1E8
:101BE00038605FB7F894FC01649FE00DF11D11248B
:101BF000BF0168177907D1F45FBF8FE594E00197C3
:101C0000F1F700C0000008958091350190913601F0
:101C100023E0829FF0011124E957FD4F8917A0F6B8
:101C20001182108212828F5F3396F8CFFC014191AE
:101C3000CF01E8E03BB9000000C047FF2BB9440FDB
:101C4000000000C000C000C02BB900C0EA9591F7A9
:101C5000D0CFB0E0A0E0EFE2FEE00C94362A7C01A9
:101C60005B016A018091240201E010E08A3010F4E7
:101C70000AE010E0C1E0D0E0B501C701F601099526
:101C8000811104C021960C171D072CF4CDB7DEB7C7
:101C9000EAE00C94522ACC9F9001CD9F300D300D7C
:101CA000112490E080E045E34A95F1F700000196A9
:101CB00082179307C1F7E0CF8091FF01811110C017
:101CC0008091D80080618093D8008AE18A95F1F7ED
:101CD00000C08091D90080FF0AC081E08093FF019D
:101CE00081E09091FF01913009F080E0089582E059
:101CF0008093FF010E94110610926903F1CF0E94A8
:101D00005C0E882359F0E0913903F0913A03309743
:101D100029F00190F081E02D0995089580E0089563
:101D20000F931F930E945C0E882329F00E947F0767
:101D30001F910F9108950E947F0700912502109135
:101D400026022091270230912802600F711F821F06
:101D5000931FEECFB0E0A0E0E0EBFEE00C94382A59
:101D60006C017B0164E670E088E70E9478278C01B3
:101D7000E601EC0CFD1C17FD0BC0FE01849164E62E
:101D800070E00E94E4278C012196CE15DF0599F7BB
:101D90000E945A2881E00115110509F080E0CDB7B5
:101DA000DEB7E8E00C94542A809135039091360315
:101DB000911103C091E089270895882369F062E0BA
:101DC00070E08DEF93E00E94AA0E811103C0809114
:101DD000350308951092350380913503EBCFCF93EF
:101DE000C0913503809136038823D1F00E947F078C
:101DF000605A75418F4F9F4F609331037093320348
:101E00008093330390933403C11108C062E070E003
:101E10008BEF93E00E94AA0E811105C0C09135039B
:101E20008C2FCF91089581E080933503F7CFB0E0F8
:101E3000A0E0EDE1FFE00C94342A49015A016B0166
:101E40007C010E943A088401A4016A2D7B2D88E060
:101E500090E00E94382B94014A2D5B2DB601C701FA
:101E600000E20E94C82A622F84E290E00E94262BA2
:101E7000CDB7DEB7ECE00C94502AB0E0A0E0E3E48C
:101E8000FFE00C94342A182FC62FD42F822E0091F5
:101E9000290300FF50C080912A03811308C080915C
:101EA0002B03861304C080912C03841729F08091A2
:101EB0008602826080938602E02FE695F0E0E95783
:101EC000FE4F808180938402802F8E7F8230E9F4E0
:101ED000ED2FD93708F0E8E7F0E0E550FD4FC111EC
:101EE0002FC02491F22FE22F00FF0FC08091350107
:101EF0009091360133E0839FD0011124A957BD4F43
:101F0000891708F492C00E94DE0D10932A03C09333
:101F10002B03D0932C03882071F02091290360912A
:101F20002D0370912E03312FAE0180912F039091DC
:101F300030030E94170FCDB7DEB7ECE00C94502AA7
:101F4000EC2EF12CE4919E2ECE2ED12C26E0129F69
:101F5000C00111242FEF30E0B9010E941A2A812F0D
:101F600090E0880F991FF5E5F69FA001F79F500DAF
:101F70001124841B950BB82EBB0CB80EA9014E1969
:101F80005F094C9DC0014D9D900D5C9D900D1124ED
:101F9000F92FCB9DA0011124452F5527D901A41B52
:101FA000B50BAC9DA001AD9D500DBC9D500D1124F5
:101FB000D901AB19B1095D01AE9CD001AF9CB00D48
:101FC000BE9CB00D1124AB2FBB272A1B3B0B2C9DB5
:101FD000D0012D9DB00D3C9DB00D11242B2F6230F2
:101FE0007105A1F050F46115710509F47DCF6130E0
:101FF000710581F0292FF52F77CF6430710569F0D5
:1020000080F06630710509F46FCFF4CF2E2FE92FE1
:10201000FB2F6ACF2E2FE52F67CF292FFE2FEB2F17
:1020200063CFE92FF92D252F5FCF1196EC931197F0
:102030002C931296FC9312978F5F139661CFE9E26F
:10204000F3E0438121E1421B08F440E021E062819A
:1020500081810E943D0F0895E9E2F3E0438121E18F
:10206000420F08F44FEF21E0628181810E943D0F11
:102070000895E9E2F3E0628121E1621B08F460E087
:1020800021E0438181810E943D0F0895E9E2F3E060
:10209000628121E1620F08F46FEF21E043818181C9
:1020A0000E943D0F0895E9E2F3E0818121E0438140
:1020B000628188500E943D0F0895E9E2F3E081813A
:1020C00021E043816281885F0E943D0F08958091E5
:1020D0002D03882319F0815080932D03209129032B
:1020E00030912A0340912B0350912C0360912D03D2
:1020F00070912E0380912F03909130030E94170F4F
:10210000089580912D03833018F48F5F80932D0301
:102110002091290330912A0340912B0350912C03E5
:1021200060912D0370912E0380912F0390913003C5
:102130000E94170F08952091290320FF24C02170C9
:102140002260209329038091860281608093860219
:10215000662381F030912A0340912B0350912C0388
:1021600060912D0370912E0380912F039091300385
:102170000E94170F20E040912C0360912B03809167
:102180002A030E943D0F089580912903869581506E
:1021900009F481E061E00E949B10089561E081E014
:1021A0000E949B100895E9E2F3E083E080831182AE
:1021B0008FEF828388E783831482A4E8B2E01296CB
:1021C0008C911297836012968C93758123E030E096
:1021D0004FEF58E760E0868197810E94170F0895BE
:1021E0009091430392FB222720F9281779F080FB76
:1021F00092F990934303609142037091430384E00A
:1022000090E00E94442B82E00E94B90B0895A4E064
:10221000B0E0EDE0F1E10C943D2A409108025091CC
:10222000090260910A0270910B022FB7F894809115
:102230003E0390913F03A0914003B09141032FBF13
:10224000841B950BA60BB70B11E084369105A105F5
:10225000B10570F10E94900E6E5F7F4F8F4F9F4FC0
:1022600069837A838B839C83809111019091120101
:10227000845F9D4F4091100150E04530510510F0B2
:1022800044E050E0BE016F5F7F4F0E94F92A82E078
:1022900090E00E94A429182F882351F00E947F0704
:1022A000609308027093090280930A0290930B02D4
:1022B000812F2496E3E00C94592AABE0B0E0E3E6EA
:1022C000F1E10C943E2A88E0E9E2F3E0DE011196A8
:1022D00001900D928A95E1F7809184029091850298
:1022E000A091860289879A87AB872B85409120022F
:1022F0005091210260912202709123023FB7F8941D
:1023000080913E0390913F03A0914003B09141031F
:102310003FBF841B950BA60BB70B84369105A10517
:10232000B10510F4222319F18091190190911A013D
:10233000845F9D4F4091180150E04C30510510F0E2
:102340004BE050E0BE016F5F7F4F0E94F92A83E0AF
:1023500090E00E94A429882369F00E947F0760937F
:102360002002709321028093220290932302109204
:10237000860281E02B96E2E00C945A2AEF92FF92BB
:102380001F93CF93DF9300D000D00F92CDB7DEB76D
:102390007B0190E080E00E94A429182F882309F493
:1023A0006DC04091030150E04115510511F041E02D
:1023B00050E06091040170910501645F7D4FCE0192
:1023C00005960E94F92A40910402509105026091FD
:1023D0000602709107022FB7F89480913E03909106
:1023E0003F03A0914003B09141032FBF841B950B85
:1023F000A60BB70B84369105A105B10538F48DE025
:1024000092E00E94FA059D818917C1F181E090E078
:102410000E94A429882309F458C040910B0150E080
:102420004530510510F044E050E060910C0170918E
:102430000D01645F7D4FCE0101960E94F92A8DE067
:1024400092E00E94FA059D8189133FC00E947F0798
:102450006093040270930502809306029093070232
:1024600089819A81AB81BC818093000290930102A3
:10247000A0930202B093030211E00EC080910D02FE
:1024800090910E02A0910F02B091100289839A835D
:10249000AB83BC831111E4CF8091000290910102C3
:1024A000A0910202B0910302F70180839183A2837D
:1024B000B383812F0F900F900F900F900F90DF91AB
:1024C000CF911F91FF90EF90089510E0E5CFA8E025
:1024D000B0E0EDE6F2E10C943E2A66EE7EEF90E08D
:1024E00080E00E94442B60E082E090E00E94262B76
:1024F00060E083E090E00E94262B1092F20110929F
:10250000F10160E074E184E090E00E94442B60E01F
:1025100086E090E00E94262B6FEF87E090E00E941B
:10252000262B40E050E0BA0188E090E00E94382B72
:1025300060E084E290E00E94262B60E087E190E07A
:102540000E94262B60E08CE090E00E94262B60E049
:102550008DE090E00E94262B19821A821B821C8239
:102560001D821E821F82188648E050E068E170E0FC
:10257000CE0101960E94162B40E050E0BA0180E2A5
:1025800090E00E94382B40E050E0BA018FE090E0EC
:102590000E94382B40E050E0BA0183E190E00E94B5
:1025A000382B2896E2E00C945A2A1F920F920FB60D
:1025B0000F9211242F933F934F935F936F937F93C9
:1025C0008F939F93AF93BF93EF93FF938091E1001D
:1025D00082FF09C08091E20082FF05C08091E10086
:1025E0008B7F8093E1008091DA0080FF24C080918E
:1025F000D80080FF20C08091DA008E7F8093DA00BF
:102600008091D90080FF9DC080E189BD82E189BDB4
:1026100009B400FEFDCF81E08093690380914403FB
:10262000811109C00E9411060E94B2068091E20049
:1026300084608093E2008091E10080FF17C0809168
:10264000E20080FF13C08091E2008E7F8093E20061
:102650008091E20080618093E2008091D8008062E6
:102660008093D80019BC85E0809369038091E100D4
:1026700084FF2BC08091E20084FF27C080E189BDE8
:1026800082E189BD89B5982F917080FFFBCF809141
:10269000D8008F7D8093D8008091E1008F7E809359
:1026A000E1008091E2008F7E8093E2008091E20061
:1026B00081608093E20080916A03882309F447C017
:1026C00084E080936903809169038091E10083FF36
:1026D00027C08091E20083FF23C08091E100877FC3
:1026E0008093E10082E08093690310926A038091F5
:1026F000E1008E7F8093E1008091E2008E7F8093E5
:10270000E2008091E20080618093E20042E060E0BC
:1027100080E00E9480068091F00088608093F00045
:10272000FF91EF91BF91AF919F918F917F916F91A9
:102730005F914F913F912F910F900FBE0F901F907F
:10274000189519BC109269031092440374CF8091BC
:10275000E30087FD93E090936903B5CF78941F92CF
:102760001FB61F9211248F939F93AF93BF938091B5
:102770003E0390913F03A0914003B0914103019625
:10278000A11DB11D80933E0390933F03A09340038E
:10279000B0934103BF91AF919F918F911F901FBE46
:1027A0001F9018959C014FB7F89480913E0390912B
:1027B0003F03A0914003B09141034FBF821B930B95
:1027C00008952FB7F89480913E0390913F03A09114
:1027D0004003B09141032FBF08950E94E1139C0173
:1027E0009091800280918102982B21F030937D029C
:1027F00020937C029091820280918302982B21F099
:1028000030937B0220937A02E0913903F0913A03EE
:10281000309749F082E080937E020480F581E02DBC
:102820008EE792E0099508951092F00180913801A9
:10283000EEE8F1E0882329F18091420387FF21C06F
:102840008EE1DF011D928A95E9F790E080E00E9419
:102850000F0890E080E00E94EA071092EF010E94CA
:10286000F30C86E0EEE7F2E0DF011D928A95E9F7CE
:102870001092770210927802109279020E94ED1362
:10288000089586E0DECFAAE2B0E0E9E4F4E10C943A
:102890003D2A8BE693E02091F100FC012193CF01CA
:1028A000F3E083379F07B9F780916C03833009F415
:1028B00070C0B8F4813009F447C0823009F4B1C067
:1028C0008091E80083FF7EC280916B0390916C033E
:1028D0009A3008F077C2E92FF0E0E45AF44D0C94F6
:1028E000A72A8A3009F48CC08B3009F46FC0893074
:1028F00039F780916B03813219F780916F039091C2
:1029000070030297E8F68091E800877F8093E800E3
:102910008091E80082FF38C09091F3008091F2002E
:10292000029731F48091F100813011F0863021F46A
:102930008091F100809346038091E8008B7780932B
:10294000E8000E946106BCCF80916B03813A09F0D8
:10295000B7CF8091E800877F8093E80080916F0374
:1029600090917003892B61F460E287E493E070E05A
:102970000E940D078091E8008B778093E800A0CF3C
:1029800060E090E080E0F3CF809169038111C0CFD7
:1029900097CF80916B03813A09F092CF80916F03BA
:1029A00090917003892B09F08BCF8091E800877F8D
:1029B0008093E8008091E80080FFFCCF809138018F
:1029C0008093F1008091E8008E77B9CF80916B03FE
:1029D000813209F075CF80916F0390917003892B3C
:1029E00009F06ECF8091E800877F8093E8000E9415
:1029F000610680916D03809338010E94141460CFAA
:102A000080916B03813209F05BCF8091E800877F72
:102A10008093E8000E94610680916E0380934503D5
:102A20004FCF80916B03813A09F04ACF8091E80043
:102A3000877F8093E8008091E80080FFFCCF809141
:102A40004503BECF803899F0823809F0BBC1809130
:102A50006F038F70873008F0B5C18093E9008091D3
:102A6000EB0085FB882780F91092E90006C0809171
:102A7000670390916803911182609091E800977FBD
:102A80009093E8008093F1001092F1008091E800AB
:102A90008E7794C1882309F482C1823009F092C1F3
:102AA00080916D03811185C180916F038F702FEF2D
:102AB000280F263008F086C18093E9002091EB00B2
:102AC00020FF77C1933031F48091EB0080628093D6
:102AD000EB006FC19091EB0090619093EB0021E0CF
:102AE00030E001C0220F8A95EAF72093EA001092A5
:102AF000EA008091EB008860EACF811163C11091F8
:102B00006D031F778091E3008078812B8093E30031
:102B10008091E800877F8093E8000E9461068091A1
:102B2000E80080FFFCCF8091E30080688093E300A1
:102B300082E0111183E08093690344C180588230A0
:102B400008F040C180916D0390916E038C3D23E0AD
:102B50009207A1F583E08A838AE289834FB7F894CC
:102B6000DE01139620E03EE051E2E32FF0E05093C7
:102B70005700E49120FF03C0E295EF703F5FEF70D4
:102B80008E2F90E0EA30C0F0C7968D939D932F5F13
:102B9000243159F74FBF8091E800877F8093E80088
:102BA0006AE270E0CE0101960E940D078091E80074
:102BB0008B778093E80006C1C096E7CF40916F0302
:102BC00050917003292F33272330310509F444C075
:102BD00078F52130310509F46FC08BE390E0E9EF1F
:102BE000F4E02230310509F0EDC02091E800277FA4
:102BF0002093E800209171033091720382179307AC
:102C000008F49C0140E02115310509F064C0411130
:102C100062C08091E80082FDC9CF8091690388235A
:102C200029F2853019F28091E80083FFF2CFBECF00
:102C300021323105A9F12232310509F0C3C0411515
:102C4000510509F443C04130510509F0BBC086EB82
:102C500090E0EFEFF3E0C9CF992781309105C1F003
:102C6000009759F0029709F0ADC0E6E4F5E0E49171
:102C70008E2F90E0E6E4F5E007C0E6E6F5E0E491AB
:102C80008E2F90E0E6E6F5E0009709F49BC0ADCF0B
:102C9000E4E5F5E0E4918E2F90E0E4E5F5E0F4CF93
:102CA0004115510571F04130510509F08BC089E0A3
:102CB00090E0E4E2F5E099CF82E190E0E4E3F5E032
:102CC00094CF89E090E0EBE0F5E08FCF84E490E0F2
:102CD000E5EBF4E08ACF80916903882309F466CF9D
:102CE000853009F463CF8091E80083FD5FCF809148
:102CF000E80082FD8ECF8091E80080FF84CF909124
:102D0000F3008091F2002115310519F0883091050A
:102D100050F041E0089709F040E08091E8008E779C
:102D20008093E80070CF44914093F1003196215098
:102D300031090196E8CF803809F044C08091E8005D
:102D4000877F8093E80080916A038093F1009ECE94
:102D5000811138C010916D031230A0F58091E80008
:102D6000877F8093E80010936A030E946106112315
:102D700011F084E005C08091E30087FDFACF81E087
:102D80008093690342E061EC81E00E94800642E2A8
:102D900061EC82E00E9480068091690313C08091FB
:102DA0006D03813079F481E0933009F080E0809305
:102DB00068031092E9008091E800877F8093E80023
:102DC0000E9461068091E80083FF0AC08091E800BC
:102DD000877F8093E8008091EB0080628093EB0016
:102DE000AA96E3E00C94592A1F920F920FB60F9205
:102DF00011242F933F934F935F936F937F938F9300
:102E00009F93AF93BF93CF93DF93EF93FF93D091B3
:102E1000E900DF708091EC00C82FC17080FDC0E830
:102E20001092E9008091F000877F8093F000789401
:102E30000E9443141092E9008091F0008860809312
:102E4000F000CD2BCF70C093E900FF91EF91DF919F
:102E5000CF91BF91AF919F918F917F916F915F9132
:102E60004F913F912F910F900FBE0F901F9018958B
:102E70000E9414142FEF84E39CE021508040904086
:102E8000E1F700C0000088E19AE00FB6F894A89539
:102E9000809360000FBE90936000FFCF662309F41B
:102EA0005DC08D3C41F40E9472088195809381023F
:102EB0000E94ED1308958E3C19F40E947208F6CF1B
:102EC0008F3C31F40E947208819580938002F0CF8C
:102ED000803D19F40E947208F8CF893D29F40E94C0
:102EE000500880938202E4CF8A3D21F40E9450086A
:102EF0008195F7CF8B3D31F40E94500881958093E6
:102F00008302D6CF8C3D19F40E945008F8CF9FE27F
:102F1000980F983070F4815D990B21E030E001C08A
:102F2000220F8A95EAF780917F02822B80937F029D
:102F3000BFCF8D3D31F48091790281608093790219
:102F4000B7CF8E3D21F4809179028260F7CF8F3D1B
:102F500009F0AECF809179028460F0CF4091800279
:102F60008D3C59F48091810287FF0DC0109281023F
:102F700041110BC01092770208C08E3C81F4809101
:102F8000810218169CF3442381F080918202909173
:102F90008302892B09F08CCF1092780289CF8F3C65
:102FA00049F447FFF0CF1092800280918102811195
:102FB000ECCFE0CF803D19F41416ACF3E4CF909140
:102FC0008202893D29F41916F4F610928202DBCFB1
:102FD0008A3D19F497FFD7CFF8CF909183028B3DAC
:102FE00029F497FFD0CF10928302CDCF8C3D19F4F6
:102FF0001916CCF3C8CF9FE2980F983090F4815DFA
:10300000990B21E030E0B90102C0660F771F8A9565
:10301000E2F7CB01809590917F02892380937F0214
:10302000B2CF8D3D31F4809179028E7F8093790209
:10303000AACF8E3D21F4809179028D7FF7CF8F3D0D
:1030400009F0A1CF809179028B7FF0CF882399F18D
:103050009CEF980F913A40F4682F8CE891E00E9421
:103060008B070E94F30C089590E2980F983050F46B
:10307000877091E001C0990F8A95EAF7892F0E9425
:10308000E70AEFCF9BE5980F933028F490E080E0BB
:103090000E940F08089598E5980F9B3128F490E05E
:1030A00080E00E94EA07089593E3980F933118F4A3
:1030B00060E00E944E170895CF93C82F8823D1F166
:1030C0008CEF8C0F813AC0F580913801882311F183
:1030D0008091420387FF1EC0EC2FE695E695E695AA
:1030E000F0E0E457FE4F828190E04C2F477021E0E2
:1030F00030E002C0220F331F4A95E2F78223932368
:10310000892B89F06C2F8CE891E00E948B070E943C
:10311000F30C09C0EEE8F1E08191C81799F381E062
:10312000E439F807C9F76C2F8CE891E00E94B507E5
:103130000E94F30CCF91089580E28C0F883068F4E0
:10314000C77021E030E001C0220FCA95EAF78091F4
:10315000F001822B8093F001EBCFEBE5EC0FE33035
:1031600040F4F0E0E65CFE4F808190E00E940F08A2
:10317000E1CFE8E5EC0FEB3150F4F0E0EE0FFF1F8C
:10318000E35CFE4F808191810E94EA07D3CF83E305
:103190008C0F833178F661E08C2F0E944E17CACFD6
:1031A0000F931F93CF93DF93C62FD42F022FFC01D1
:1031B00085818823A9F06093AF030E94E113909367
:1031C000AE038093AD03C77081E001C0880FCA953C
:1031D000EAF70E944F0DDF91CF911F910F91089553
:1031E0008091AF03681335C08091AD039091AE0319
:1031F0000E94D213883C910560F510E21D0FCD1797
:10320000B9F080E28C0F883040F4C77081E001C0D3
:10321000880FCA95EAF70E94480D183048F481E0FB
:103220009D2F977001C0880F9A95EAF70E944F0D65
:10323000802F0E945C18802F0E942618183058F6A4
:10324000D77081E001C0880FDA95EAF70E94480D37
:10325000C2CFC77081E001C0880FCA95EAF7F6CFE8
:10326000B0E0A0E0E6E3F9E10C94362A8C01FC0121
:103270008481882309F468C021E040815181628102
:10328000738195810E94080CEC01F80195819923C6
:1032900009F453C480E280932B01D0934F02C09372
:1032A0004E029E0130522115304238F4F8018681D9
:1032B000807F09F465C0FE010AC09E0130542115CB
:1032C000304100F5F8018681807FFE0109F0FF277B
:1032D000ED33F10560F4E455FF4FE491E0932B01E9
:1032E000F801818180935102808180935002FE0118
:1032F000E851FC47E730F10508F042C0EA59F44DC7
:103300000C94A72A9E013A9521153F41A0F29E01F7
:10331000205A32452032310550F3FE01D9CF26E242
:1033200041EE61EEC8010E94D0188091CD018770F6
:1033300059F0F8018581882339F08091430382FF99
:1033400003C082E00E94B90BCDB7DEB7EAE00C946F
:10335000522A27E245EE65EEE5CF26E241EE60EE29
:10336000E1CF27E245EE64EEDDCF26E241EE62EEEC
:10337000D9CF27E245EE66EED5CF28E241E0EBCF8C
:103380001092AF039E0130572332310508F0EFC38E
:1033900084E090E00E94102B9093430380934203BB
:1033A000FE01E150F047E232F10520F4E359F44D1B
:1033B0000C94A72A8091420381608093420395C0B8
:1033C000809143038860809343038FC080914203C0
:1033D0008260F3CF809142038460EFCF80914203FB
:1033E0008860EBCF809143038160EDCF80914303F0
:1033F0008260E9CF809142038061DFCF80914203F8
:103400008062DBCF809142038064D7CF0E94141486
:10341000809142038068D1CF809142038C60CDCFF0
:10342000809143038360CFCF809142038E7FC5CFCD
:1034300080914303877FC7CF809142038D7FBDCFAB
:10344000809142038B7FB9CF80914203877FB5CFB4
:10345000809143038E7FB7CF809143038D7FB3CF9D
:10346000809142038F7EA9CF809142038F7DA5CFAB
:10347000809142038F7BA1CF0E941414809142035C
:103480008F779BCF80914203837F97CF80914303B7
:103490008C7F99CF8091420382FB992790F921E09C
:1034A000922790FB82F990FB83F987CF80914303A9
:1034B000982F909591708E7F892B90FB81F983CF07
:1034C00090914203892F8F7B96FF806476CF0E9474
:1034D000141490914203892F97FB87F980586DCF80
:1034E00061E08EE090E00E94262B60914203709193
:1034F000430384E090E00E94442B0E94141415CFF3
:1035000060E0EFCF90914203892F8F7E94FF80611E
:1035100054CF90914203892F8E7F90FF81604DCFD1
:1035200090914303892F877F93FF88604CCF8091D0
:10353000AC0169E2811165E38CE891E00E948B07A0
:103540002AC3992309F405C3C3302CE7D20709F431
:10355000D4C008F0B7C0C1158CE7D80709F4C0C0C3
:10356000C130DC4709F4CFC0F8018581C081D18129
:10357000882309F4D6C0CE010E94F80AF82E682FDD
:10358000CE010E946C0BBE018F2D0E94AA090E94E1
:10359000C909D82FC92FA82EF801C580B680B294CA
:1035A0003FE0B3228091CD018770F1F0EC2CCC206C
:1035B000E1F0892F807F803451F080E28D0F8830D8
:1035C00098F0B11004C0892F807E803269F080911C
:1035D000430382FF09C082E00E94B90B8091CD01B4
:1035E0008770EE24E3948111E12CDC2ED2942FE03D
:1035F000D222FBE0FD1508F4F9C0ED2DF0E0E15713
:10360000F44D0C94A72A8091290380FF1CC0282F19
:103610002E7F2093290330912A0340912B03509150
:103620002C0360912D0370912E0380912F039091B4
:1036300030030E94170F809186028160809386027A
:103640000E94DE0D72CE81608093290361E0869531
:103650000E949B106ACE44EC50E16EEC70E10E9437
:10366000340863CE4EEC50E164EC70E1F8CF43E5F2
:1036700050E16DE570E1F3CF4DE550E163E570E1B8
:10368000EECF49E350E166E470E1E9CF46E450E172
:1036900069E370E1E4CF4FE150E16CE270E1DFCF2C
:1036A0004CE250E16FE170E1DACF47E650E161E8CA
:1036B00070E1D5CF41E850E167E670E1D0CF61E03D
:1036C00081E0C6CFCB35ECE7DE0749F1CC35FCE72E
:1036D000DF07D9F0CA35DC4709F046CF81E01CC0CE
:1036E0000E9414143FEF84E39CE0315080409040EE
:1036F000E1F700C000000E946E076FEF7FEF90E0DF
:1037000080E00E94442B0E9438178091430382FB83
:10371000882780F991E089270E94F01025CF80E06A
:10372000FBCFCE010E94390BF82E2DCF2C2F2F70FE
:10373000F22EC07F19F0F29490EFF922CC20B9F06C
:10374000FF2069F080E28D0F883010F0A11009C0D1
:103750008091F001F82AF092F0010E94F30C8D2F75
:1037600043C08091EF01F82AF092EF01F6CF8D2F40
:103770000E942618FF20D1F1D05ED83010F0A110A1
:1037800004C08F2D0E94E70A06C0F0948091EF01DB
:10379000F822F092EF010E94F30C28C03C2F3F70FA
:1037A000F32EC07FC03219F0F29480EFF822AA20E5
:1037B00059F081E0A81609F478C0CC2009F482C041
:1037C000BB2009F446C0CBCF8091430382FD3DC0AE
:1037D000CC20A9F1FF2039F08091F001F82AF09275
:1037E000F0010E94F30C80E00E945C18ED2DE8507F
:1037F000FF0B349710F40E947F0EEE20A9F0809109
:10380000CD0180FD11C0F8011582869586958695BB
:103810000E94D00BC8010E9430198091CD0186957D
:10382000869586950E94A70B20E0F8014081518182
:1038300062817381848195810E94080C85CD80E02E
:103840000E942618FF2091F29CCFCC20A1F0B1104D
:1038500004C08F2D0E944F0DC9CF91E0B912C6CF81
:103860008091EE019F2D9823F91609F4BFCFF82A15
:10387000F092EE01BBCFB110B9CF8F2D0E94480D51
:103880009091EE018F2D892329F08F2D809589232A
:103890008093EE018091AD019F2D982309F4A6CF6E
:1038A000F094F822F092AD01A1CFCC2029F0E1E014
:1038B000EB1508F49BCFCDCFB11098CF8F2D0E9480
:1038C000480D94CFBB20D1F3F9E3AF122FC12FEFF6
:1038D00037EE83E0215030408040E1F700C0000027
:1038E00025C18C2F86958695837069F0813009F00B
:1038F0007DCF8D2F9C2F9370C11002C080E090E08F
:103900000E94EA0773CF8D2F9C2F9370C11002C0C5
:1039100080E090E00E940F0869CF6C2D8D2F0E94EF
:103920004E1764CF8C2F837009F03FC0C1105ECF5B
:103930004D2F429546954770440F440F2D2F2F7001
:1039400030E0042E02C0220F331F0A94E2F790E009
:1039500080E0D4FF09C08FE090E002C0880F991F7B
:103960004A95E2F780959095C695C695C370C2308A
:1039700099F078F44091F1015091F201C13039F0A1
:10398000822B932B842395230E94E00B2FCF242B93
:10399000352B822B932BF8CF822B932B2091F10187
:1039A0003091F20182279327EFCF8695CC2011F03A
:1039B0008C2F8170882309F419CF4D2F429546959D
:1039C0004770440F440F2D2F2F7030E0042E02C09B
:1039D000220F331F0A94E2F790E080E0D4FF09C081
:1039E0008FE090E002C0880F991F4A95E2F780951A
:1039F0009095C695C695C370C23099F078F4409101
:103A0000450250914602C13039F0822B932B84231A
:103A100095230E94A20BEACE242B352B822B932BCD
:103A2000F8CF822B932B20914502309146028227BA
:103A30009327EFCFCF70CC2029F08C2F0E94D00B92
:103A40008D2F08CF8D2F0E94480D8C2F0E94A70B21
:103A5000CDCE8D2F92EFA91689F19A1570F0E0EF77
:103A6000AE16D1F0F1EFAF1691F0CC2009F459C0A9
:103A7000B11075CE8C2F8F7125C023EFA21629F1BE
:103A800034EFA312F2CF8091430382FD2CC08C2F20
:103A90008F71CC20D9F216C0CC2059F0B110A6CE2F
:103AA000CF7181E090E002C0880F991FCA95E2F7BC
:103AB000BACF81E08B1508F499CEF2CF8C2F8F719D
:103AC000C110C4CF0E94D00B91CE90E080E0CC20FA
:103AD00009F49FCFCF7181E090E002C0880F991F59
:103AE000CA95E2F796CFCC2089F0CF718C2F0E9437
:103AF000D00B8091430382FF07C0E8E0CE9FC00156
:103B0000112483608093CD018C2FDCCF81E00E9453
:103B1000B90BF1E0FB1508F069CE82E00E94B90B09
:103B200065CEBB2039F0893309F4D1CE8D2F0E94A8
:103B300026185CCE8C2F8F7189CFFE01E851FC478F
:103B4000E730F10508F4DACBC631FCE7DF0709F40A
:103B5000EECC8091F0018272FE01E052F847E5312F
:103B6000F10508F001CDE556F44D0C94A72AC631B5
:103B7000FCE7DF0709F0E5CC8091F0018A7A91E05B
:103B800009F490E09093AC0169E2811165E38CE85F
:103B900091E00E94B5070E94F30CC7CBCF93DF934F
:103BA0008091CC01807F09F04DC08091CB018823AA
:103BB00009F448C0E091AC0350917303C091C70170
:103BC000D091C6016091C8017091C90147E05E17AC
:103BD000C9F18E2F90E0E49FF0011124EC58FC4FC6
:103BE0002481222391F1489FF001499FF00D112477
:103BF000DF01AC58BC4F11962C9111972C1325C0A6
:103C00002C912D1322C015962C91159721111DC0B2
:103C100012962D913C91261B370B283C3105A8F4B8
:103C20008091CC018F7080618093CC01E658FC4F6D
:103C300080818F708061808386EC91E00E943019D2
:103C40000E94EE0ADF91CF910895FC013196E77052
:103C5000BECFA4E1B0E0EFE2FEE10C94342A8C0187
:103C600086E0F801DE011F9601900D928A95E1F73A
:103C7000F8018481E58096ECA92E91E0B92E90910F
:103C8000CA01911128C0882319F1EE20F1F0C80172
:103C90000E94E50BF82E8823C1F087E0F801D501DA
:103CA00001900D928A95E1F78091CA01813031F43B
:103CB0008091C6019091C7010E942C0B0E94CE1DDD
:103CC0008F2D6496ECE00C94502AC8010E943019A4
:103CD000FF24F394F5CFD080C18082809380F09050
:103CE000CB012091C8013091C901A401421B530BA3
:103CF000FF2009F4D9C0483C510508F092C0882340
:103D0000F9F29091C7018091CC01282F207F09F012
:103D100056C0C91214C09091C601D91210C0E1104A
:103D200048C08F7080618093CC0186EC91E00E9446
:103D300030198091CC01F8018683F12CC1CFE110BC
:103D400038C06C2D8D2D0E94DB056C2D8D2D0E94B1
:103D5000DB05E82E8111F1CFDF86C88A8F8598892F
:103D60000E942C0B292F22952F70243058F49F701D
:103D7000223088F0992399F0F8019681907F79F4A8
:103D8000FE2C9ECF2A5F2F70223068F0C8010E945F
:103D90003019EF2CF5CF992311F0882389F3805E39
:103DA000883070F3F3CF803F58F3815F833070F732
:103DB000E7CF8091CC0181608093CC01BECFC91246
:103DC00007C09091C601D91203C0EE2009F48DC03E
:103DD000C8010E94E50B882309F477CFEE2009F48F
:103DE00074CF8091CC01803288F02091C60130914F
:103DF000C701398728879B868A869091CA019C874C
:103E00001D868E87CE0108960E94301987E0F80142
:103E1000A6ECB1E001900D928A95E1F70E94CE1DCB
:103E200057CF9091CC01292F207F51F486EC91E05F
:103E30000E94301987E0F50111928A95E9F77DCF4C
:103E4000882309F43DCF8091C7018C1110C0809167
:103E5000C601D8120CC0E1100AC09683C8010E94A6
:103E6000301987E0F50111928A95E9F729CFC80149
:103E70000E94E50B882309F428CFEE2009F425CF12
:103E80008091CC01803210F22091C6013091C7019F
:103E90003A8329839C828B829091CA019D831E82E2
:103EA0008F83CE010196B0CF483C5105D0F68823D0
:103EB00009F40ECFFE2CEE2009F407CF8091C70144
:103EC0008C1120C08091C601D8121CC08091CC01F9
:103ED00080FD0FC0982F907F61F08683903F31F076
:103EE000982F907F905F8F70892B8683C8010E94E6
:103EF000301987E0F801A6ECB1E001900D928A95A7
:103F0000E1F7DECEC8010E94E50B81117FCF8091E1
:103F1000CC0181608093CC01C8010E943019D0CEC1
:103F2000ABE1B0E0E6E9FFE10C943C2A4E8B5F8BFD
:103F3000688F798F8A8F9B8F192F91111092EF01C3
:103F40001D8A86E0FE017696DE011F9601900D9295
:103F50008A95E1F70A8D002341F021E04F855889C9
:103F600069897A89C8010E94080C0B8B1C8B87E039
:103F7000FE013F96DE01189601900D928A95E1F7B9
:103F8000CE0108960E94291E81112AC087E0FE01F9
:103F90003896DE01119601900D928A95E1F78C8595
:103FA0008823F1F02091730330E0C90101968770F6
:103FB00099274091AC0348171906E9F097E0929FC2
:103FC000D001939FB00D1124AC58BC4FFE01319627
:103FD00001900D929A95E1F7809373030E94EE0A87
:103FE00017E08091AC0390917303891312C06B9614
:103FF000E4E00C94582A0E94141410927303109257
:10400000AC0387E0E6ECF1E0DF011D928A95E9F769
:10401000E7CF819FC00111248C589C4F0E94291E1C
:10402000882329F38091AC0390E00196877099274B
:104030008093AC03D6CFA3E1B0E0E1E2F0E20C94D0
:10404000332A8E01045F1F4F88E0D8011D928A95A4
:10405000E9F785E7C82E81E0D82EF12CE12CAA24BF
:10406000A394B12C2FE7822E21E0922EF6018191AC
:104070006F018F3F09F442C0F894E82FE295EF708A
:10408000F0E021A18F70A50102C0440F551F8A9551
:10409000E2F7CA01922F982B91A392A180958923D0
:1040A00082A3789400C0E9E7F1E0712C31E021911E
:1040B0002F3F09F46BC0A22FA295AF70B0E090968D
:1040C0008C9190E02F7002C0959587952A95E2F724
:1040D00080FD5CC0832F782A330F8E169F0639F738
:1040E000F601319780818F3F11F00E94A20850EABB
:1040F0005A95F1F7F801EE0DFF1D70828FEFE81A67
:10410000F80AA4E0EA16F10409F0B0CF48E050E064
:10411000B80189E292E00E94EC2A009741F028E081
:10412000F801A9E2B2E001900D922A95E1F7009121
:104130003202892B69F181E08093F7010E94E1133B
:104140009093F6018093F5018091F5019091F6012D
:104150000E94D213059700F110E00C5C1D4F44E063
:1041600050E069E272E0C8010E94EC2AF12C892B30
:1041700051F084E0E9E2F2E0D80101900D928A95D5
:10418000E1F7FF24F3941092F70107C080E0A3CF7A
:104190008091F7018111D8CFF12C0E945C0EE82E9E
:1041A000E0913202882309F47DC019821A821B82B1
:1041B0001C820E2F10E00C5C1D4F809124028A306F
:1041C000D8F54EEB51E1BE016F5F7F4FC8010E94F1
:1041D000290E882309F455C047E051E1BE016F5F05
:1041E0007F4FC8010E94290E882309F44AC04DE57B
:1041F00051E1BE016F5F7F4FC8010E94290E8823E5
:1042000009F43FC0109224028091310290E044E012
:1042100050E0BE016F5F7F4F8C5C9D4F0E94EC2A87
:1042200021E02093FE01892BF1F4E12C8E2D8F29C2
:104230006396EDE00C944F2A8091F8019091F9017A
:104240000E94D213843F914008F0BBCF8091FE01C1
:10425000882359F384E0FE013196DF011D928A958F
:10426000E9F71092FE01E0913102F0E0EC5CFD4FC5
:1042700089819A81AB81BC8180839183A283B3833E
:10428000D5CF809124028F3F31F08F5F809324023D
:104290008A3008F4B9CF0E94E1139093F90180931A
:1042A000F801D4CFF0E0EC5CFD4F84E0ADE0B2E08B
:1042B00001900D928A95E1F78DE092E00E94FA0557
:1042C00080930C028090110290901202A090130231
:1042D000B09014028091FA019091FB01A091FC0131
:1042E000B091FD0188169906AA06BB06D1F080920E
:1042F000FA019092FB01A092FC01B092FD010E9494
:104300005C0E81110EC00E947F07861A970AA80AC8
:10431000B90A8092250290922602A0922702B092BA
:1043200028028BE0E5E1F2E0DE01119601900D92AA
:104330008A95E1F72981822F86950A81DB80CC80DE
:104340001B8510921F02112309F470CF10FF0AC0C1
:104350009091290320FF0FC091609093290360E0A2
:104360000E949B1011FF62CF20E04C2D6D2D802FFD
:104370000E943D0F5BCF9E7F909329038091860220
:104380008160809386020E94DE0DECCFA6E0B0E053
:10439000ECECF1E20C943C2A0E94E1138C01809138
:1043A000F3019091F4018017910781F019821A822C
:1043B0000E94E113682F49815A81792F80E090E0B3
:1043C0000E94901F1093F4010093F3012696E4E0FD
:1043D0000C94582A1F921FB61F9211248F939F93FB
:1043E000AF93BF9380913D03811113C080913E0331
:1043F00090913F03A0914003B09141034196A11DCC
:10440000B11D80933E0390933F03A0934003B0936C
:104410004103BF91AF919F918F911F901FBE1F903D
:104420001895CDB7DEB760970FB6F894DEBF0FBE14
:10443000CDBF85B7806885BF85B7806885BF84B7E5
:10444000877F84BF0FB6F894A8958091600088613B
:1044500080936000109260000FBE80E890E00FB67D
:10446000F89480936100909361000FBE80EA98E019
:1044700090938B0180938A010E9411060E94B206DC
:104480008091E20084608093E200789480916903D7
:104490008823A1F01091E9001F709091EC00892F02
:1044A000817090FD80E8182B1092E9008091E8005F
:1044B00083FD0E9443141F701093E90082E084BDC5
:1044C00093E095BD9AEF97BD80936E001092250200
:1044D0001092260210922702109228020E945C0E6F
:1044E0008093200180912001882309F475C01092E7
:1044F00033018BE1809334010E945C0E81110E9494
:10450000B828809120018091200194E0811190E0F1
:104510009093320284E0891B8093310284E90E94E7
:10452000A20886E60E94A20887E90E94A20886ECFB
:104530000E94A20809E711E0D8018D918D018F3FFB
:1045400011F00E94A208B1E00F371B07A9F788E01D
:10455000E4E3F2E0DF01282F1D922A95E9F7E9E272
:10456000F2E0DF011D928A95E9F790E080E00E9479
:10457000102B863E9E4F11F00E94671282E090E061
:104580000E94022B80933C0284E090E00E94102B5A
:1045900090934303809342030E941B20EFEFF6E7C2
:1045A00021E0E150F0402040E1F700C000000E940F
:1045B0001B200E945C0EE4E08111E0E0F0E0EC5C86
:1045C000FD4F808181FF0CC06FEF7FEF90E080E0B6
:1045D0000E94442B0E946E078BE1809333018ACFA7
:1045E00083E090E00E94022B90E00E94E00B0E948A
:1045F0005C0E811132C182E08093720280E8809368
:10460000B5030E9472276BE070E08FE792E00E9492
:10461000AA0E8823E9F18091720265E070E081FDC5
:104620001EC18AE792E00E94AA0E882389F16DE0FC
:1046300070E088E692E00E94AA0E882349F10E9469
:104640007F07605A75418F4F9F4F6093310370937E
:1046500032038093330390933403E8EBF3E080E07C
:1046600092E0DF019C011D9221503040E1F7F09370
:10467000BF05E093BE058FEF9FEF9093B703809344
:10468000B60381E080933603809335031092730262
:1046900080913302811179C090E080E00E94102B5C
:1046A000863E9E4F21F00E9467120E94D31088E040
:1046B00090E00E940A2B4B015C0184E290E00E9492
:1046C000022B282F30E040E050E060E070E080E016
:1046D00090E000E20E94AD2A282939294A295B2965
:1046E0002093290330932A0340932B0350932C03E8
:1046F00060932D0370932E0380932F0390933003C8
:10470000809186028360809386022E7F89F50E94C5
:10471000D31088E090E00E940A2B6B017C0184E2B8
:1047200090E00E94022B282F30E040E050E060E053
:1047300070E080E090E00E94AD2AB22FA32FF42F0A
:10474000E52F5B0197018601BC29A12BFE29E32BF4
:10475000B0932903A0932A03F0932B03E0932C0337
:1047600060932D03B0922E0380932F039093300318
:104770000E943A088091290380FF04C060E086957A
:104780000E949B1081E0809333020E945C0E811195
:1047900002C00E94BB2881E291E090933A0380938B
:1047A0003903FF24F3941AE0412E512C612C712C13
:1047B0008091690300E112E1853009F48CC00E9408
:1047C0001B200DE312E0B4E3CB2EB2E0DB2E25E498
:1047D00032E0D601F80191918D912E173F0709F42F
:1047E00084C09817C1F30E945C0E382EE12CF601AC
:1047F000B1906F01D8018D908D018B1429F1A12CFE
:10480000992493948B24882D8921B1F03320A1F031
:10481000AF82E8860E94E1139A878987FB8691E040
:104820008B2D892109F490E09C874F8158856985FB
:104830007A858B850E94901FA394990CB6E0AB12E9
:10484000E2CFF8013197B082E394E8E0EE12CFCFE7
:104850000E94900EEE24E3944DC080E0CDCE85E71B
:1048600092E0E1CE80916903843031F10E94D40E50
:1048700010923D0388E190E0A0E40FB6F894A8956B
:10488000809360000FBEA093600083B7817F846037
:1048900083BF83B7816083BF7894889583B78E7F09
:1048A00083BF0FB6F894A8958091600088618093CB
:1048B0006000109260000FBE80916803882359F059
:1048C0000E941B20E4E3F2E081918111E6C2B2E094
:1048D000EC33FB07C9F780916903853009F4C2CF37
:1048E0000E9414140E947F0E6ACF98137CCF0E94FE
:1048F000C621E12C0E945C0E80913603882309F4C6
:10490000BAC080917402909175020E94D213C2972E
:1049100008F491C00E94E113909375028093740291
:1049200088EB93E09093BF058093BE050E945C0ED8
:10493000882309F4C2C18BEA92E00E94AD0C209159
:10494000450230914602832F9927009751F19C012F
:1049500088E0A901F4E056954795FA95E1F74115ED
:10496000510511F08C5F9A01A9015695479556950E
:1049700047954115510511F08E5F9A01369527959F
:10498000232B09F08F5F813009F457C1882359F038
:10499000823009F455C1833009F455C18AE892E0A8
:1049A00004C080E0D6CF83EA92E00E94ED0C8091B3
:1049B00051020E947405FC01019620812032D9F336
:1049C000CF010E94590D89EB92E00E94AD0C8091BD
:1049D00050020E947405FC01019620812032D9F317
:1049E000CF010E94590D85EB92E00E94AD0C8090A2
:1049F0004E0290904F022091290130912A01821697
:104A0000930609F023C120914D02203209F01EC106
:104A100027E432E0C9012F5F3F4FFC014081403263
:104A2000C9F30E94590D83EB92E00E94AD0C809176
:104A30002B010E942D0C8091B6039091B703892B16
:104A400009F040C1809135038823A9F00E947F07B7
:104A500000913103109132032091330330913403DC
:104A6000601B710B820B930B6F3F7F4F8F4F9F47E4
:104A700010F40E94D40EE1100E94EF0E86E0EEE7E3
:104A8000F2E0DE01119601900D928A95E1F7C09057
:104A90007F021091800200918102D0908202E0900A
:104AA0008302109280021092810210928202109270
:104AB0008302812F802B09F445C080917C02909164
:104AC0007D020E94D2139C0190917702992309F4F0
:104AD00004C225313105B0F19F3F19F09F5F9093DB
:104AE0007702112359F00E9472089FEF11160CF4FF
:104AF00091E0899F802D112480938002002359F03A
:104B00000E94720891E010160CF09FEF899F802D93
:104B100011248093810280918002882399F0B090C3
:104B20008102BB2079F00E949208882309F4A9C170
:104B3000809380028B2D0E949208882309F4A4C1DF
:104B4000809381028D2D8E2909F445C080917A02CF
:104B500090917B020E94D2139C019091780299233C
:104B600009F4B6C121353105B0F19F3F19F09F5FBF
:104B700090937802DD2059F00E9450089FEF1D1499
:104B80000CF491E0899F802D112480938202EE2005
:104B900059F00E94500891E01E140CF09FEF899F7D
:104BA000802D11248093830280918202882399F0C2
:104BB000D0908302DD2079F00E949208882309F4C6
:104BC00066C1809382028D2D0E949208882309F489
:104BD00061C18093830280917F028C1117C0809104
:104BE0008002882311F0181311C020918102222322
:104BF00011F002130BC090918302992311F09E11C2
:104C000005C030918202332309F45DC10E94ED1387
:104C100086E0FE013196AEE7B2E001900D928A95F2
:104C2000E1F70E947F0E90917602891709F4C0CDBA
:104C3000809376020E947F07BBCD8DE992E0B5CECE
:104C400087E992E0B2CE80E992E0AFCE90922A015D
:104C50008092290120E220934D02B12CA12C1092C8
:104C60004C0257E4252E52E0352E62E4C62E62E057
:104C7000D62E8101C501B401A30192010E94852AAB
:104C8000605D603319F42016310631F0811491040F
:104C9000A104B10409F460E2D80114966C93C50133
:104CA000B401A30192010E94852A49015A010150D1
:104CB0001109C016D106F1F6ABCE8BEB92E00E9443
:104CC000AD0CB9CE80913603882309F4BBCE809118
:104CD00073028111B7CE0E94EF0E2091B60330917E
:104CE000B7032115310509F4ADCE80E041E050E075
:104CF000282E312C5A01082E02C0AA0CBB1C0A9483
:104D0000E2F7B50162237323672B11F48F5FF0CFB5
:104D10009091720290FF9BC0880F880F880F80933C
:104D20002E0110923101895F80932F0183E08093DF
:104D3000320124E630E047E050E06CE271E088E7C1
:104D40000E941228892B09F07DCE95E0220C331C9D
:104D50009A95E1F78091720280FF8BC0E2E5F2E064
:104D600080E2DF011D928A95E9F7E3E8F1E0F88B34
:104D7000EF878FE7882E81E0982E07E0AF85B8890E
:104D80004D91B88BAF87F40181914F01820D932D26
:104D9000911D9C0128543C4F3E872D87E42FF0E065
:104DA000EE5AFD4F30E020E0D02ED21A11E0022E54
:104DB00001C0110F0A94EAF76D857E8590E0DB0152
:104DC0008D91BD0181234D2D491B4770C42E042EAA
:104DD000000C550BB82F01C0BB0FCA94EAF7CB2EBD
:104DE0005195419551094770552701C086954A95BF
:104DF000EAF7C82A8081C82AC0829F5F9830F9F6F6
:104E00002F5F3F4F31962830310571F6EF85F889D5
:104E1000E758F14009F0B2CF04E610E020E230E0BC
:104E200042E552E060E488E70E943328892B09F0CC
:104E300009CEC501809590952091B6033091B703B6
:104E4000822393239093B7038093B603FBCD82957F
:104E5000880F807680932E0191013695279536959F
:104E6000279520933101815E80932F012093320199
:104E700060CFA10148545C4F04E610E020E230E02E
:104E8000D1CFF092800256CEF09281025BCEF092AA
:104E9000820299CEF09283029ECE09BD19BD09B45B
:104EA00000FEFDCF8091D8008F7D8093D800809147
:104EB000E00082608093E0008091E00081FDFCCF03
:104EC0000E94141408CD822B892B09F4A1CE9ECE0A
:104ED0002B30310508F04BCE7ECE2B30310508F05B
:104EE000FDCD30CE1092B9008CE08093B8000895CB
:104EF000B0E0A0E0EEE7F7E20C94352AB82EEB0123
:104F00000E94E1136C01EE24E394F12CC431D1052D
:104F100060F025E0E22EF12CCF3FDC0731F0CE012E
:104F200064E170E00E941A2A7B0184EAA82E94E8CA
:104F3000992E1092BC00A092BC000E94E1138C013B
:104F40008091BC0087FF0DC08091B900887F8830B8
:104F5000F9F08091B900887F8031D1F00FEF1FEF19
:104F600008C0C8010E94D213E816F90648F70EEFF0
:104F70001FEFCF3FDC07E9F2C6010E94D213C8172A
:104F8000D907B8F6C801CDB7DEB7EBE00C94512ACB
:104F9000B092BB009092BC000E94E1138C01809102
:104FA000BC0087FF0AC08091B900887F883111F06A
:104FB0008034A1F610E000E0E5CFC8010E94D213D2
:104FC000E816F90660F7D3CF0F931F93CF93DF93C3
:104FD000EB018093BB0084E88093BC000E94E11346
:104FE0008C018091BC0087FF11C02091B900287FFF
:104FF00081E090E0283211F490E080E09195819575
:105000009109DF91CF911F910F910895CF3FDC0758
:1050100041F3C8010E94D213C817D90710F78EEFC9
:105020009FEFEFCFB0E0A0E0E8E1F8E20C94382A7F
:105030006B018A017901B9010E947827E6010C0D04
:105040001D1DC017D10711F097FF08C024E9209358
:10505000BC00CDB7DEB7E8E00C94542AB7018991C3
:105060000E94E427EECFB0E0A0E0E9E3F8E20C9480
:10507000382AC62F6A017901B8010E94782797FD66
:105080000CC0B8018C2F0E94E427E601EC0CFD1C3B
:10509000CE15DF0511F097FF08C024E92093BC006E
:1050A000CDB7DEB7E8E00C94542AB80189910E948C
:1050B000E427EECF84E98093BC0008958EE14A9BFB
:1050C00002C08150E1F74A9BFECF08955A9880E2D2
:1050D0008A95F1F75A9A0895FC013BE03A95F1F769
:1050E00098E020E080E031E040E14A95F1F7880F58
:1050F0004A9B02C08160232742E04A95F1F70000F5
:1051000040E14A95F1F7915079F790E19A95F1F7DE
:1051100099B132E03A95F1F7000040E14A95F1F794
:1051200092FB992790F992272081920F90830895FE
:10513000A1E0B0E0EEE9F8E20C943A2A19828C0181
:105140007C01E60EF11C0E151F0541F481E09981EA
:10515000911180E02196E6E00C94562A0E945E2888
:10516000CE0101960E946C28F80181938F01EBCF4C
:10517000529A5A9A089552985A9AEA9AE9E6F0E0B1
:1051800080818F7C808308956150770B91E001C00E
:10519000990F6A95EAF720E031E0911108C02223C7
:1051A00091F05A9A80E28A95F1F75A980895492F1A
:1051B000482339F05A9A232740E24A95F1F7969509
:1051C000ECCF5A98F9CF5A98EDCFFF920F931F93D7
:1051D000CF93DF93EC018C01060F111DC017D1078F
:1051E00029F4CDB7DEB7E5E00C94572AF9900E9478
:1051F000662868E08F2D0E94C428F0CF1F920F927E
:105200000FB60F9211240F931F932F933F934F9339
:105210005F936F937F938F939F93AF93BF93EF931E
:10522000FF93CF93DF930F92CDB7DEB719820E9421
:105230005E28CE0101960E946C28082F06950695DF
:105240000695282F22952570902F9570290F922F63
:10525000937026952695920F982797708981982BA1
:1052600009F05CC0053008F059C080E18A95F1F77B
:105270005A9A529A82E08A95F1F700C05A9888E0CB
:10528000089F80011124D801A050BF4F1696ED91C0
:10529000FC9117973097A9F0609173017091740198
:1052A00014962D913C911597260F371F11968D91CD
:1052B0009C911297680F791F13964C9113978C91BC
:1052C0000995F801E050FF4F6381662351F020916A
:1052D00073013091740184819581820F931F0E9424
:1052E000E5280E94662880E18A95F1F75A9852983D
:1052F0005A9A80E18A95F1F7F801E050FF4F6081FA
:10530000662351F020917301309174018181928163
:10531000820F931F0E9498280E945E280F90DF91B1
:10532000CF91FF91EF91BF91AF919F918F917F911D
:105330006F915F914F913F912F911F910F910F901E
:105340000FBE0F901F9018950F931F93CF93DF936D
:10535000EC0105970CF04CC0F894529A5A9885E0ED
:105360008A95F1F700009C2F969595708C2F85708B
:10537000980F892F83709695969523E0CC0FDD1FAB
:105380002A95E1F7980F8E01092B0E94662800C02C
:1053900068E0802F0E94C42880E18A95F1F7529836
:1053A0005A9A4A9B1EC087E090E04A991CC0FE01B1
:1053B000E050FF4F63816623F9F020917301309133
:1053C000740184819581820F931F0E949828811116
:1053D00013C0529A5A9A7894DF91CF911F910F91EE
:1053E000089500C0DECF019729F4529A5A9A789412
:1053F00080E0F2CF00C0D9CF0E945E2880E28A957B
:10540000F1F75A98529A80E18A95F1F7C050DF4F30
:105410006881662351F02091730130917401898174
:105420009A81820F931F0E94E5280E946628789433
:1054300081E0D2CFAA1BBB1B51E107C0AA1FBB1F33
:10544000A617B70710F0A61BB70B881F991F5A9510
:10545000A9F780959095BC01CD0108952F923F92B8
:105460004F925F926F927F928F929F92AF92BF9274
:10547000CF92DF92EF92FF920F931F93CF93DF9320
:10548000CDB7DEB7CA1BDB0B0FB6F894DEBF0FBE7D
:10549000CDBF09942A88398848885F846E847D84CA
:1054A0008C849B84AA84B984C884DF80EE80FD80CC
:1054B0000C811B81AA81B981CE0FD11D0FB6F89442
:1054C000DEBF0FBECDBFED010895991B79E004C08A
:1054D000991F961708F0961B881F7A95C9F7809533
:1054E000089597FB072E16F4009407D077FD09D096
:1054F0000E941A2A07FC05D03EF4909581959F4F93
:105500000895709561957F4F0895A1E21A2EAA1B08
:10551000BB1BFD010DC0AA1FBB1FEE1FFF1FA21763
:10552000B307E407F50720F0A21BB30BE40BF50B60
:10553000661F771F881F991F1A9469F760957095E9
:10554000809590959B01AC01BD01CF010895EE0FB0
:10555000FF1F0590F491E02D0994002E083090F083
:10556000982F872F762F652F542F432F322F2227E6
:105570000850F4CF220F331F441F551F661F771F9B
:10558000881F991F0A95B2F7002D089597FD109472
:10559000002E083098F00850232F342F452F562F17
:1055A000672F782F892F912DF4CF15949795879594
:1055B0007795679557954795379527950A95AAF753
:1055C0001124002D0895FB01DC0102C005900D920D
:1055D00041505040D8F70895FB01DC0104C08D9183
:1055E0000190801921F441505040C8F7881B990B55
:1055F0000895FB01DC0102C001900D924150504022
:10560000D8F70895F999FECF92BD81BDF89A9927F0
:1056100080B50895A6E1B0E044E050E00C944C2B36
:10562000A8E1B0E042E050E00C944C2BDC01A40F68
:10563000B51F4150504048F0CB01840F951F2E916B
:105640000E94272B41505040D0F70895262FF999FA
:10565000FECF92BD81BDF89A019700B4021639F0D1
:105660001FBA20BD0FB6F894FA9AF99A0FBE0895A2
:105670000396272F0E94272B0E94262B252F0E945E
:10568000272B242F0C94272B0196272F0E94272BA2
:105690000C94262BDC01CB01FC01F999FECF06C04E
:1056A000F2BDE1BDF89A319600B40D9241505040E0
:1056B000B8F70895F894FFCF22154A15E2164A1557
:1056C000E2167D159E15E2169B16A816AD19B119A6
:1056D0008F19A919B519B919BD19141A891A1C1AE3
:1056E000E619EA19201AEE19241A301AFA19821A40
:1056F000FE19341A021A381A601A061A3C1A671A66
:105700000C1A421A4A1AF219281AF6192C1A101AE7
:10571000461A561A701A801AE019181A901A961B0F
:10572000961BCE1BCE1B711C8D1CF61BF61B921CF0
:105730001A1D291D291D031B2B1B321B371B3C1B4C
:10574000411B461B4B1B501B551B5A1B5F1B9519BE
:1057500095199519951995199519951995199519D9
:105760000000000100000000000000040100000033
:1057700004050000000000000B090000000000000C
:10578000016B07BA0DB30DAC0DFF00200021007FA7
:10579000220003003600363601FF818283E200E9F1
:1057A00000EA00B500B600B700CD008301CC008A46
:1057B00001920194012102230224022502260227DC
:1057C000022A02B300B4006F0070009F01CB019F5A
:1057D00002A0020C02946697C6F4F5F6F731330086
:0A57E000081018181008000001005E
:00000001FF
